{
  "contractName": "ReceiverPays",
  "abi": [
    {
      "inputs": [],
      "stateMutability": "payable",
      "type": "constructor"
    },
    {
      "inputs": [],
      "name": "owner",
      "outputs": [
        {
          "internalType": "address",
          "name": "",
          "type": "address"
        }
      ],
      "stateMutability": "view",
      "type": "function"
    },
    {
      "inputs": [
        {
          "internalType": "uint256",
          "name": "amount",
          "type": "uint256"
        },
        {
          "internalType": "uint256",
          "name": "nonce",
          "type": "uint256"
        },
        {
          "internalType": "bytes",
          "name": "sig",
          "type": "bytes"
        }
      ],
      "name": "claimPayment",
      "outputs": [],
      "stateMutability": "nonpayable",
      "type": "function"
    },
    {
      "inputs": [],
      "name": "kill",
      "outputs": [],
      "stateMutability": "nonpayable",
      "type": "function"
    }
  ],
  "bytecode": "0x6080604052336000806101000a81548173ffffffffffffffffffffffffffffffffffffffff021916908373ffffffffffffffffffffffffffffffffffffffff160217905550610ac4806100536000396000f3fe608060405234801561001057600080fd5b50600436106100415760003560e01c806341c0e1b5146100465780638da5cb5b14610050578063a90ae8871461006e575b600080fd5b61004e61008a565b005b610058610131565b60405161006591906106bc565b60405180910390f35b610088600480360381019061008391906104a1565b610155565b005b60008054906101000a900473ffffffffffffffffffffffffffffffffffffffff1673ffffffffffffffffffffffffffffffffffffffff163373ffffffffffffffffffffffffffffffffffffffff1614610118576040517f08c379a000000000000000000000000000000000000000000000000000000000815260040161010f9061071c565b60405180910390fd5b3373ffffffffffffffffffffffffffffffffffffffff16ff5b60008054906101000a900473ffffffffffffffffffffffffffffffffffffffff1681565b6001600083815260200190815260200160002060009054906101000a900460ff16156101b6576040517f08c379a00000000000000000000000000000000000000000000000000000000081526004016101ad9061075c565b60405180910390fd5b600180600084815260200190815260200160002060006101000a81548160ff0219169083151502179055506000610218338585306040516020016101fd9493929190610648565b604051602081830303815290604052805190602001206102fe565b905060008054906101000a900473ffffffffffffffffffffffffffffffffffffffff1673ffffffffffffffffffffffffffffffffffffffff1661025b828461032e565b73ffffffffffffffffffffffffffffffffffffffff16146102b1576040517f08c379a00000000000000000000000000000000000000000000000000000000081526004016102a89061077c565b60405180910390fd5b3373ffffffffffffffffffffffffffffffffffffffff166108fc859081150290604051600060405180830381858888f193505050501580156102f7573d6000803e3d6000fd5b5050505050565b6000816040516020016103119190610696565b604051602081830303815290604052805190602001209050919050565b60008060008061033d856103a3565b8093508194508295505050506001868484846040516000815260200160405260405161036c94939291906106d7565b6020604051602081039080840390855afa15801561038e573d6000803e3d6000fd5b50505060206040510351935050505092915050565b600080600060418451146103ec576040517f08c379a00000000000000000000000000000000000000000000000000000000081526004016103e39061073c565b60405180910390fd5b60008060006020870151925060408701519150606087015160001a90508083839550955095505050509193909250565b600061042f61042a846107c1565b61079c565b90508281526020810184848401111561044b5761044a610931565b5b610456848285610885565b509392505050565b600082601f8301126104735761047261092c565b5b813561048384826020860161041c565b91505092915050565b60008135905061049b81610a77565b92915050565b6000806000606084860312156104ba576104b961093b565b5b60006104c88682870161048c565b93505060206104d98682870161048c565b925050604084013567ffffffffffffffff8111156104fa576104f9610936565b5b6105068682870161045e565b9150509250925092565b6105198161080e565b82525050565b61053061052b8261080e565b6108c5565b82525050565b61053f81610820565b82525050565b61055661055182610820565b6108d7565b82525050565b61056d61056882610861565b6108c5565b82525050565b6000610580601c83610803565b915061058b8261095e565b601c82019050919050565b60006105a36025836107f2565b91506105ae82610987565b604082019050919050565b60006105c66026836107f2565b91506105d1826109d6565b604082019050919050565b60006105e96020836107f2565b91506105f482610a25565b602082019050919050565b600061060c601a836107f2565b915061061782610a4e565b602082019050919050565b61063361062e8261084a565b6108f3565b82525050565b61064281610854565b82525050565b6000610654828761051f565b6014820191506106648286610622565b6020820191506106748285610622565b602082019150610684828461055c565b60148201915081905095945050505050565b60006106a182610573565b91506106ad8284610545565b60208201915081905092915050565b60006020820190506106d16000830184610510565b92915050565b60006080820190506106ec6000830187610536565b6106f96020830186610639565b6107066040830185610536565b6107136060830184610536565b95945050505050565b6000602082019050818103600083015261073581610596565b9050919050565b60006020820190508181036000830152610755816105b9565b9050919050565b60006020820190508181036000830152610775816105dc565b9050919050565b60006020820190508181036000830152610795816105ff565b9050919050565b60006107a66107b7565b90506107b28282610894565b919050565b6000604051905090565b600067ffffffffffffffff8211156107dc576107db6108fd565b5b6107e582610940565b9050602081019050919050565b600082825260208201905092915050565b600081905092915050565b60006108198261082a565b9050919050565b6000819050919050565b600073ffffffffffffffffffffffffffffffffffffffff82169050919050565b6000819050919050565b600060ff82169050919050565b600061086c82610873565b9050919050565b600061087e8261082a565b9050919050565b82818337600083830152505050565b61089d82610940565b810181811067ffffffffffffffff821117156108bc576108bb6108fd565b5b80604052505050565b60006108d0826108e1565b9050919050565b6000819050919050565b60006108ec82610951565b9050919050565b6000819050919050565b7f4e487b7100000000000000000000000000000000000000000000000000000000600052604160045260246000fd5b600080fd5b600080fd5b600080fd5b600080fd5b6000601f19601f8301169050919050565b60008160601b9050919050565b7f19457468657265756d205369676e6564204d6573736167653a0a333200000000600082015250565b7f5265636569766572506179733a206f776e65722063616e20676574207468652060008201527f66756e6473000000000000000000000000000000000000000000000000000000602082015250565b7f5265636569766572506179733a207369676e6174757265206c656e677468206d60008201527f69736d6163680000000000000000000000000000000000000000000000000000602082015250565b7f5265636569766572506179733a206e6f6e636520616c72656164792075736564600082015250565b7f5265636569766572506179733a206e6f74207665726966696564000000000000600082015250565b610a808161084a565b8114610a8b57600080fd5b5056fea264697066735822122078263c3613e65a8a1d70b7112df1e08b84de2b84b70fb36a4f2e9e78396bd09164736f6c63430008060033",
  "immutableReferences": {},
  "source": "// SPDX-License_identifier: MIT\n\npragma solidity ^0.8.4;\n\ncontract ReceiverPays {\n    address public owner = msg.sender;\n\n    mapping(uint256 => bool) usedNonces;\n\n    // Funds are sent at deployment time.\n    constructor() payable { }\n\n\n    function claimPayment(uint256 amount, uint256 nonce, bytes memory sig) public {\n        require(!usedNonces[nonce],\"ReceiverPays: nonce already used\");\n        usedNonces[nonce] = true;\n\n        // This recreates the message that was signed on the client.\n        bytes32 message = prefixed((keccak256(abi.encodePacked(msg.sender, amount, nonce, this))));\n\n        require(recoverSigner(message, sig) == owner,\"ReceiverPays: not verified\");\n\n        payable(msg.sender).transfer(amount);\n    }\n\n    // Destroy contract and reclaim leftover funds.\n    function kill() public {\n        require(msg.sender == owner, \"ReceiverPays: owner can get the funds\");\n        selfdestruct(payable(msg.sender));\n    }\n\n\n    // Signature methods\n\n    function splitSignature(bytes memory sig)\n        internal\n        pure\n        returns (uint8, bytes32, bytes32)\n    {\n        require(sig.length == 65,\"ReceiverPays: signature length mismach\");\n\n        bytes32 r;\n        bytes32 s;\n        uint8 v;\n\n        /* solium-disable-next-line security/no-inline-assembly */\n        assembly {\n            // first 32 bytes, after the length prefix\n            r := mload(add(sig, 32))\n            // second 32 bytes\n            s := mload(add(sig, 64))\n            // final byte (first byte of the next 32 bytes)\n            v := byte(0, mload(add(sig, 96)))\n        }\n\n        return (v, r, s);\n    }\n\n    function recoverSigner(bytes32 message, bytes memory sig)\n        internal\n        pure\n        returns (address)\n    {\n        uint8 v;\n        bytes32 r;\n        bytes32 s;\n\n        (v, r, s) = splitSignature(sig);\n\n        return ecrecover(message, v, r, s);\n    }\n\n    // Builds a prefixed hash to mimic the behavior of eth_sign.\n    function prefixed(bytes32 hash) internal pure returns (bytes32) {\n        return keccak256(abi.encodePacked(\"\\x19Ethereum Signed Message:\\n32\", hash));\n    }\n}",
  "sourcePath": "/Users/dhruvin/gbc/bcdv-1013/Advanced-Smart-Contracts/notes/intro-state-channel/demo/verify-sign/contracts/ReceiverPays.sol",
  "compiler": {
    "name": "solc",
    "version": "0.8.6+commit.11564f7e.Emscripten.clang"
  },
  "schemaVersion": "3.3.4",
  "updatedAt": "2021-07-23T00:49:23.970Z",
  "devdoc": {
    "kind": "dev",
    "methods": {},
    "version": 1
  },
  "userdoc": {
    "kind": "user",
    "methods": {},
    "version": 1
  }
}