{
  "contractName": "SimpleStorage",
  "abi": [
    {
      "inputs": [],
      "name": "myVariable",
      "outputs": [
        {
          "internalType": "uint256",
          "name": "",
          "type": "uint256"
        }
      ],
      "stateMutability": "view",
      "type": "function",
      "constant": true
    },
    {
      "inputs": [
        {
          "internalType": "uint256",
          "name": "x",
          "type": "uint256"
        }
      ],
      "name": "set",
      "outputs": [],
      "stateMutability": "nonpayable",
      "type": "function"
    },
    {
      "inputs": [],
      "name": "get",
      "outputs": [
        {
          "internalType": "uint256",
          "name": "",
          "type": "uint256"
        }
      ],
      "stateMutability": "view",
      "type": "function",
      "constant": true
    }
  ],
  "bytecode": "0x608060405234801561001057600080fd5b506101ad806100206000396000f3fe608060405234801561001057600080fd5b50600436106100415760003560e01c80634e59ff561461004657806360fe47b1146100645780636d4ce63c14610080575b600080fd5b61004e61009e565b60405161005b919061013b565b60405180910390f35b61007e60048036038101906100799190610103565b6100a4565b005b6100886100e5565b604051610095919061013b565b60405180910390f35b60005481565b600081146100db577f4e487b7100000000000000000000000000000000000000000000000000000000600052600160045260246000fd5b8060008190555050565b60008054905090565b6000813590506100fd81610160565b92915050565b60006020828403121561011557600080fd5b6000610123848285016100ee565b91505092915050565b61013581610156565b82525050565b6000602082019050610150600083018461012c565b92915050565b6000819050919050565b61016981610156565b811461017457600080fd5b5056fea264697066735822122041e9a0192f1f47fece5e3050715177f02bde1faef70d0b4dd8d57093fe408ae064736f6c63430008040033",
  "immutableReferences": {},
  "source": "// SPDX-License-Identifier\n\npragma solidity ^0.8.4;\n\ncontract SimpleStorage {\n  uint256  public myVariable;\n\n  function set(uint x) public {\n    assert(x == 0);  \n    myVariable = x;\n  }\n\n  function get() public view returns (uint) {\n    return myVariable;\n  }\n}",
  "sourcePath": "/Users/dhruvin/gbc/bcdv-1013/Advanced-Smart-Contracts/notes/storage-exception-debugging/demo/simple-storage-debug/contracts/Store.sol",
  "compiler": {
    "name": "solc",
    "version": "0.8.4+commit.c7e474f2.Emscripten.clang"
  },
  "schemaVersion": "3.4.1",
  "updatedAt": "2021-07-14T01:48:19.121Z",
  "networkType": "ethereum",
  "devdoc": {
    "kind": "dev",
    "methods": {},
    "version": 1
  },
  "userdoc": {
    "kind": "user",
    "methods": {},
    "version": 1
  }
}