{
  "contractName": "HighLevelDelegateProxy",
  "abi": [
    {
      "inputs": [
        {
          "internalType": "address",
          "name": "initAddr",
          "type": "address"
        }
      ],
      "stateMutability": "nonpayable",
      "type": "constructor"
    },
    {
      "stateMutability": "payable",
      "type": "fallback"
    },
    {
      "inputs": [],
      "name": "currentVersion",
      "outputs": [
        {
          "internalType": "address",
          "name": "",
          "type": "address"
        }
      ],
      "stateMutability": "view",
      "type": "function"
    },
    {
      "inputs": [],
      "name": "owner",
      "outputs": [
        {
          "internalType": "address",
          "name": "",
          "type": "address"
        }
      ],
      "stateMutability": "view",
      "type": "function"
    },
    {
      "stateMutability": "payable",
      "type": "receive"
    },
    {
      "inputs": [
        {
          "internalType": "address",
          "name": "newVersion",
          "type": "address"
        }
      ],
      "name": "upgrade",
      "outputs": [],
      "stateMutability": "nonpayable",
      "type": "function"
    }
  ],
  "bytecode": "0x608060405234801561001057600080fd5b5060405161041b38038061041b8339818101604052602081101561003357600080fd5b8101908080519060200190929190505050600073ffffffffffffffffffffffffffffffffffffffff168173ffffffffffffffffffffffffffffffffffffffff16141561007e57600080fd5b806000806101000a81548173ffffffffffffffffffffffffffffffffffffffff021916908373ffffffffffffffffffffffffffffffffffffffff16021790555033600160006101000a81548173ffffffffffffffffffffffffffffffffffffffff021916908373ffffffffffffffffffffffffffffffffffffffff1602179055505061030c8061010f6000396000f3fe6080604052600436106100385760003560e01c80630900f010146100e25780638da5cb5b146101335780639d888e86146101745761003f565b3661003f57005b60008060009054906101000a900473ffffffffffffffffffffffffffffffffffffffff1673ffffffffffffffffffffffffffffffffffffffff16600036604051808383808284378083019250505092505050600060405180830381855af49150503d80600081146100cc576040519150601f19603f3d011682016040523d82523d6000602084013e6100d1565b606091505b50509050806100df57600080fd5b50005b3480156100ee57600080fd5b506101316004803603602081101561010557600080fd5b81019080803573ffffffffffffffffffffffffffffffffffffffff1690602001909291905050506101b5565b005b34801561013f57600080fd5b5061014861028c565b604051808273ffffffffffffffffffffffffffffffffffffffff16815260200191505060405180910390f35b34801561018057600080fd5b506101896102b2565b604051808273ffffffffffffffffffffffffffffffffffffffff16815260200191505060405180910390f35b600160009054906101000a900473ffffffffffffffffffffffffffffffffffffffff1673ffffffffffffffffffffffffffffffffffffffff163373ffffffffffffffffffffffffffffffffffffffff161461020f57600080fd5b600073ffffffffffffffffffffffffffffffffffffffff168173ffffffffffffffffffffffffffffffffffffffff16141561024957600080fd5b806000806101000a81548173ffffffffffffffffffffffffffffffffffffffff021916908373ffffffffffffffffffffffffffffffffffffffff16021790555050565b600160009054906101000a900473ffffffffffffffffffffffffffffffffffffffff1681565b60008054906101000a900473ffffffffffffffffffffffffffffffffffffffff168156fea2646970667358221220aa8066898562a194b709992abb0d26f173e3da27d2052c19195cfe6a8d1a585364736f6c634300060c0033",
  "immutableReferences": {},
  "source": "// SPDX-License-Identifier: MIT\n\npragma solidity ^0.6.0;\n\ncontract BaseStateLayout {\n  address public currentVersion;\n  address public owner;\n}\n\ncontract HighLevelDelegateProxy is BaseStateLayout {\n  modifier onlyOwner() {\n    require(msg.sender == owner);\n    _;\n  }\n\n  constructor(address initAddr) public{\n    require(initAddr != address(0));\n    currentVersion = initAddr;\n    owner = msg.sender; // this owner may be another contract with multisig, not a single contract owner\n  }\n\n  function upgrade(address newVersion) public onlyOwner()\n  {\n    require(newVersion != address(0));\n    currentVersion = newVersion;\n  }\n\n  fallback() external payable {\n    (bool success, ) = address(currentVersion).delegatecall(msg.data);\n    require(success);\n  }\n\n  receive() external payable {\n\n  }\n}\n\ncontract HighLevelLogicContract is BaseStateLayout {\n    uint public counter;\n\n    function incrementCounter() public{\n        counter++;\n    }\n}",
  "sourcePath": "/Users/dhruvinparikh/gbc_tut/Advanced-Smart-Contracts/Advanced-Smart-Contracts/notes/sc-patterns-best-practices/demo/proxy-pattern/contracts/HighLevelDelegateProxy.sol",
  "compiler": {
    "name": "solc",
    "version": "0.6.12+commit.27d51765.Emscripten.clang"
  },
  "schemaVersion": "3.2.0",
  "updatedAt": "2020-07-25T00:28:57.126Z",
  "devdoc": {
    "kind": "dev",
    "methods": {},
    "version": 1
  },
  "userdoc": {
    "kind": "user",
    "methods": {},
    "version": 1
  }
}