{
  "contractName": "BadKickback",
  "abi": [
    {
      "inputs": [],
      "name": "cap",
      "outputs": [
        {
          "internalType": "uint256",
          "name": "",
          "type": "uint256"
        }
      ],
      "stateMutability": "view",
      "type": "function"
    },
    {
      "inputs": [],
      "name": "fee",
      "outputs": [
        {
          "internalType": "uint256",
          "name": "",
          "type": "uint256"
        }
      ],
      "stateMutability": "view",
      "type": "function"
    },
    {
      "inputs": [],
      "name": "owner",
      "outputs": [
        {
          "internalType": "address payable",
          "name": "",
          "type": "address"
        }
      ],
      "stateMutability": "view",
      "type": "function"
    },
    {
      "inputs": [],
      "name": "participantCount",
      "outputs": [
        {
          "internalType": "uint256",
          "name": "",
          "type": "uint256"
        }
      ],
      "stateMutability": "view",
      "type": "function"
    },
    {
      "inputs": [
        {
          "internalType": "address",
          "name": "",
          "type": "address"
        }
      ],
      "name": "participants",
      "outputs": [
        {
          "internalType": "bool",
          "name": "",
          "type": "bool"
        }
      ],
      "stateMutability": "view",
      "type": "function"
    },
    {
      "inputs": [],
      "name": "participate",
      "outputs": [],
      "stateMutability": "payable",
      "type": "function"
    },
    {
      "inputs": [
        {
          "internalType": "address[]",
          "name": "attendees",
          "type": "address[]"
        }
      ],
      "name": "payout",
      "outputs": [],
      "stateMutability": "nonpayable",
      "type": "function"
    },
    {
      "inputs": [],
      "name": "destroy",
      "outputs": [],
      "stateMutability": "nonpayable",
      "type": "function"
    }
  ],
  "bytecode": "0x60806040526032600055670de0b6b3a764000060015533600260006101000a81548173ffffffffffffffffffffffffffffffffffffffff021916908373ffffffffffffffffffffffffffffffffffffffff16021790555034801561006257600080fd5b50610875806100726000396000f3fe60806040526004361061007b5760003560e01c806383197ef01161004e57806383197ef0146102025780638da5cb5b14610219578063d11711a21461025a578063ddca3f43146102645761007b565b806309e69ede14610080578063355274ea146100e7578063362f04c0146101125780634180c2d51461013d575b600080fd5b34801561008c57600080fd5b506100cf600480360360208110156100a357600080fd5b81019080803573ffffffffffffffffffffffffffffffffffffffff16906020019092919050505061028f565b60405180821515815260200191505060405180910390f35b3480156100f357600080fd5b506100fc6102af565b6040518082815260200191505060405180910390f35b34801561011e57600080fd5b506101276102b5565b6040518082815260200191505060405180910390f35b34801561014957600080fd5b506102006004803603602081101561016057600080fd5b810190808035906020019064010000000081111561017d57600080fd5b82018360208201111561018f57600080fd5b803590602001918460208302840111640100000000831117156101b157600080fd5b919080806020026020016040519081016040528093929190818152602001838360200280828437600081840152601f19601f8201169050808301925050505050505091929192905050506102bb565b005b34801561020e57600080fd5b5061021761067c565b005b34801561022557600080fd5b5061022e6106b7565b604051808273ffffffffffffffffffffffffffffffffffffffff16815260200191505060405180910390f35b6102626106dd565b005b34801561027057600080fd5b50610279610839565b6040518082815260200191505060405180910390f35b60036020528060005260406000206000915054906101000a900460ff1681565b60005481565b60045481565b3373ffffffffffffffffffffffffffffffffffffffff16600260009054906101000a900473ffffffffffffffffffffffffffffffffffffffff1673ffffffffffffffffffffffffffffffffffffffff161461037e576040517f08c379a00000000000000000000000000000000000000000000000000000000081526004018080602001828103825260158152602001807f6f6e6c79206f776e65722063616e207061796f7574000000000000000000000081525060200191505060405180910390fd5b600054815111156103f7576040517f08c379a00000000000000000000000000000000000000000000000000000000081526004018080602001828103825260138152602001807f746f6f206d616e7920617474656e64616e74730000000000000000000000000081525060200191505060405180910390fd5b60008151478161040357fe5b04905060005b825181101561067757600083828151811061042057fe5b60200260200101519050600073ffffffffffffffffffffffffffffffffffffffff168173ffffffffffffffffffffffffffffffffffffffff1614156104cd576040517f08c379a000000000000000000000000000000000000000000000000000000000815260040180806020018281038252600f8152602001807f696e76616c69642061646472657373000000000000000000000000000000000081525060200191505060405180910390fd5b600360008273ffffffffffffffffffffffffffffffffffffffff1673ffffffffffffffffffffffffffffffffffffffff16815260200190815260200160002060009054906101000a900460ff1661058c576040517f08c379a00000000000000000000000000000000000000000000000000000000081526004018080602001828103825260118152602001807f6e6f742061207061727469636970616e7400000000000000000000000000000081525060200191505060405180910390fd5b60008173ffffffffffffffffffffffffffffffffffffffff168460405180600001905060006040518083038185875af1925050503d80600081146105ec576040519150601f19603f3d011682016040523d82523d6000602084013e6105f1565b606091505b5050905080610668576040517f08c379a00000000000000000000000000000000000000000000000000000000081526004018080602001828103825260168152602001807f6661696c656420746f206d616b65207061796d656e740000000000000000000081525060200191505060405180910390fd5b50508080600101915050610409565b505050565b600260009054906101000a900473ffffffffffffffffffffffffffffffffffffffff1673ffffffffffffffffffffffffffffffffffffffff16ff5b600260009054906101000a900473ffffffffffffffffffffffffffffffffffffffff1681565b6001543414610754576040517f08c379a00000000000000000000000000000000000000000000000000000000081526004018080602001828103825260128152602001807f6d7573742070617920657861637420666565000000000000000000000000000081525060200191505060405180910390fd5b600054600454106107cd576040517f08c379a00000000000000000000000000000000000000000000000000000000081526004018080602001828103825260148152602001807f74686973206576656e7420697320636c6f73656400000000000000000000000081525060200191505060405180910390fd5b6001600360003373ffffffffffffffffffffffffffffffffffffffff1673ffffffffffffffffffffffffffffffffffffffff16815260200190815260200160002060006101000a81548160ff021916908315150217905550600460008154809291906001019190505550565b6001548156fea26469706673582212201f648043362365ccb974e84be715af3cc1b74c222850c799825f516b7dc063e064736f6c634300060c0033",
  "immutableReferences": {},
  "source": "// SPDX-License-Identifier: MIT\n\npragma solidity ^0.6.0;\n\n\n/* This is a bad simulation of https://kickback.events\n * Contract has been made intentionally with vulnerablity for learning purpose\n * DO NOT USE THIS contract\n *\n * The contract aims at producing higher event turnup rate\n * by charging an admission fee and then\n * split the collected fund with all attendees\n * No-shows will lose their admission fee\n * \n*/\ncontract BadKickback {\n\n    // maximum number of participants accepted\n    uint public cap = 50;\n    \n    // fee to participate in the event\n    uint public fee = 1 ether;\n    \n    // owner of this contract; admin for the event\n    address payable public owner = msg.sender;\n\n    // participants who contributed to the fund\n    mapping(address=>bool) public participants;\n    \n    // total number of participants\n    uint public participantCount;\n\n    // participate the event and pay fee\n    function participate() public payable {\n        require(msg.value == fee, \"must pay exact fee\");\n        require(participantCount < cap, \"this event is closed\");\n        participants[msg.sender] = true;\n        participantCount++;\n    }\n    \n    // at the end of the event, split the fund and pay to everyone who attended\n    function payout(address[] memory attendees) public {\n        require(owner == msg.sender, \"only owner can payout\");\n        require(attendees.length <= cap, \"too many attendants\");\n        uint amount = address(this).balance/attendees.length;\n        \n        for(uint i = 0; i < attendees.length; i++) {\n            address payee = attendees[i];\n            require(payee != address(0), \"invalid address\");\n            require(participants[payee], \"not a participant\");\n            \n            (bool success, ) = payee.call{value:amount}(\"\");\n            require(success, \"failed to make payment\");\n        }  \n    }\n    \n    // destroy this contract and send remainder balance to owner\n    function destroy() public {\n        selfdestruct(owner);\n    }\n}\n",
  "sourcePath": "/Users/dhruvinparikh/gbc_tut/Advanced-Smart-Contracts/Advanced-Smart-Contracts/security-audit-test/contracts/BadKickback.sol",
  "compiler": {
    "name": "solc",
    "version": "0.6.12+commit.27d51765.Emscripten.clang"
  },
  "schemaVersion": "3.2.0",
  "updatedAt": "2020-07-27T21:02:11.019Z",
  "devdoc": {
    "kind": "dev",
    "methods": {},
    "version": 1
  },
  "userdoc": {
    "kind": "user",
    "methods": {},
    "version": 1
  }
}