{
  "contractName": "BitWise",
  "abi": [
    {
      "inputs": [
        {
          "internalType": "uint8",
          "name": "data",
          "type": "uint8"
        }
      ],
      "name": "countBitSet",
      "outputs": [
        {
          "internalType": "uint8",
          "name": "result",
          "type": "uint8"
        }
      ],
      "stateMutability": "pure",
      "type": "function"
    },
    {
      "inputs": [
        {
          "internalType": "uint8",
          "name": "data",
          "type": "uint8"
        }
      ],
      "name": "countBitSetAsm",
      "outputs": [
        {
          "internalType": "uint8",
          "name": "result",
          "type": "uint8"
        }
      ],
      "stateMutability": "pure",
      "type": "function"
    }
  ],
  "bytecode": "0x608060405234801561001057600080fd5b50610284806100206000396000f3fe608060405234801561001057600080fd5b50600436106100365760003560e01c806348321dcc1461003b578063b70ee1661461006b575b600080fd5b61005560048036038101906100509190610111565b61009b565b6040516100629190610149565b60405180910390f35b61008560048036038101906100809190610111565b6100ad565b6040516100929190610149565b60405180910390f35b60006100a6826100ad565b9050919050565b600080600090505b60088110156100f657600180828560ff16901c1660ff1614156100e2576001826100df91906101ba565b91505b6001816100ef9190610164565b90506100b5565b50919050565b60008135905061010b81610237565b92915050565b60006020828403121561012357600080fd5b6000610131848285016100fc565b91505092915050565b610143816101fb565b82525050565b600060208201905061015e600083018461013a565b92915050565b600061016f826101f1565b915061017a836101f1565b9250827fffffffffffffffffffffffffffffffffffffffffffffffffffffffffffffffff038211156101af576101ae610208565b5b828201905092915050565b60006101c5826101fb565b91506101d0836101fb565b92508260ff038211156101e6576101e5610208565b5b828201905092915050565b6000819050919050565b600060ff82169050919050565b7f4e487b7100000000000000000000000000000000000000000000000000000000600052601160045260246000fd5b610240816101fb565b811461024b57600080fd5b5056fea26469706673582212209c12c2ddae7e79574187d0985992f33ab6a2e5711db1b3afc8cffd12940d8e9564736f6c63430008040033",
  "immutableReferences": {},
  "source": "// SPDX-License-Identifier: MIT\n\npragma solidity ^0.8.4;\n\ncontract BitWise {\n    // count the number of bit set in data.  i.e. data = 7, result = 3\n    function countBitSet(uint8 data) public pure returns (uint8 result) {\n        for( uint i = 0; i < 8; i += 1) {\n            if( ((data >> i) & 1) == 1) {\n                result += 1;\n            }\n        }\n    }\n\n    function countBitSetAsm(uint8 data ) public pure returns (uint8 result) {\n        // replace line 15 with inline assembly code\n        result = countBitSet(data);\n    }\n}\n",
  "sourcePath": "/Users/dhruvin/gbc/bcdv-1013/Advanced-Smart-Contracts/notes/solidity-assembly/lab/assembly-loop/contracts/BitWise.sol",
  "compiler": {
    "name": "solc",
    "version": "0.8.4+commit.c7e474f2.Emscripten.clang"
  },
  "schemaVersion": "3.4.1",
  "updatedAt": "2021-07-15T21:20:32.365Z",
  "devdoc": {
    "kind": "dev",
    "methods": {},
    "version": 1
  },
  "userdoc": {
    "kind": "user",
    "methods": {},
    "version": 1
  }
}