{
  "contractName": "SimplePaymentChannel",
  "abi": [
    {
      "inputs": [
        {
          "internalType": "address",
          "name": "_recipient",
          "type": "address"
        },
        {
          "internalType": "uint256",
          "name": "_duration",
          "type": "uint256"
        }
      ],
      "stateMutability": "payable",
      "type": "constructor",
      "payable": true
    },
    {
      "inputs": [],
      "name": "expiration",
      "outputs": [
        {
          "internalType": "uint256",
          "name": "",
          "type": "uint256"
        }
      ],
      "stateMutability": "view",
      "type": "function",
      "constant": true
    },
    {
      "inputs": [],
      "name": "recipient",
      "outputs": [
        {
          "internalType": "address",
          "name": "",
          "type": "address"
        }
      ],
      "stateMutability": "view",
      "type": "function",
      "constant": true
    },
    {
      "inputs": [],
      "name": "sender",
      "outputs": [
        {
          "internalType": "address",
          "name": "",
          "type": "address"
        }
      ],
      "stateMutability": "view",
      "type": "function",
      "constant": true
    },
    {
      "inputs": [
        {
          "internalType": "uint256",
          "name": "newExpiration",
          "type": "uint256"
        }
      ],
      "name": "extend",
      "outputs": [],
      "stateMutability": "nonpayable",
      "type": "function"
    },
    {
      "inputs": [
        {
          "internalType": "uint256",
          "name": "amount",
          "type": "uint256"
        },
        {
          "internalType": "bytes",
          "name": "signature",
          "type": "bytes"
        }
      ],
      "name": "close",
      "outputs": [],
      "stateMutability": "nonpayable",
      "type": "function"
    },
    {
      "inputs": [],
      "name": "claimTimeout",
      "outputs": [],
      "stateMutability": "nonpayable",
      "type": "function"
    }
  ],
  "bytecode": "0x6080604052604051610a18380380610a188339818101604052604081101561002657600080fd5b810190808051906020019092919080519060200190929190505050336000806101000a81548173ffffffffffffffffffffffffffffffffffffffff021916908373ffffffffffffffffffffffffffffffffffffffff16021790555081600160006101000a81548173ffffffffffffffffffffffffffffffffffffffff021916908373ffffffffffffffffffffffffffffffffffffffff160217905550804201600281905550505061093c806100dc6000396000f3fe608060405234801561001057600080fd5b50600436106100625760003560e01c80630e1da6c314610067578063415ffba7146100715780634665096d1461013657806366d003ac1461015457806367e404ce1461019e5780639714378c146101e8575b600080fd5b61006f610216565b005b6101346004803603604081101561008757600080fd5b8101908080359060200190929190803590602001906401000000008111156100ae57600080fd5b8201836020820111156100c057600080fd5b803590602001918460018302840111640100000000831117156100e257600080fd5b91908080601f016020809104026020016040519081016040528093929190818152602001838380828437600081840152601f19601f8201169050808301925050505050505091929192905050506102aa565b005b61013e610430565b6040518082815260200191505060405180910390f35b61015c610436565b604051808273ffffffffffffffffffffffffffffffffffffffff1673ffffffffffffffffffffffffffffffffffffffff16815260200191505060405180910390f35b6101a661045c565b604051808273ffffffffffffffffffffffffffffffffffffffff1673ffffffffffffffffffffffffffffffffffffffff16815260200191505060405180910390f35b610214600480360360208110156101fe57600080fd5b8101908080359060200190929190505050610481565b005b6002544211610270576040517f08c379a00000000000000000000000000000000000000000000000000000000081526004018080602001828103825260318152602001806108916031913960400191505060405180910390fd5b6000809054906101000a900473ffffffffffffffffffffffffffffffffffffffff1673ffffffffffffffffffffffffffffffffffffffff16ff5b600160009054906101000a900473ffffffffffffffffffffffffffffffffffffffff1673ffffffffffffffffffffffffffffffffffffffff163373ffffffffffffffffffffffffffffffffffffffff1614610350576040517f08c379a000000000000000000000000000000000000000000000000000000000815260040180806020018281038252603a8152602001806107cc603a913960400191505060405180910390fd5b61035a828261058a565b6103af576040517f08c379a000000000000000000000000000000000000000000000000000000000815260040180806020018281038252602a815260200180610867602a913960400191505060405180910390fd5b3373ffffffffffffffffffffffffffffffffffffffff166108fc839081150290604051600060405180830381858888f193505050501580156103f5573d6000803e3d6000fd5b506000809054906101000a900473ffffffffffffffffffffffffffffffffffffffff1673ffffffffffffffffffffffffffffffffffffffff16ff5b60025481565b600160009054906101000a900473ffffffffffffffffffffffffffffffffffffffff1681565b6000809054906101000a900473ffffffffffffffffffffffffffffffffffffffff1681565b6000809054906101000a900473ffffffffffffffffffffffffffffffffffffffff1673ffffffffffffffffffffffffffffffffffffffff163373ffffffffffffffffffffffffffffffffffffffff1614610526576040517f08c379a000000000000000000000000000000000000000000000000000000000815260040180806020018281038252603b815260200180610806603b913960400191505060405180910390fd5b6002548111610580576040517f08c379a00000000000000000000000000000000000000000000000000000000081526004018080602001828103825260458152602001806108c26045913960600191505060405180910390fd5b8060028190555050565b6000806105f33085604051602001808373ffffffffffffffffffffffffffffffffffffffff1673ffffffffffffffffffffffffffffffffffffffff1660601b81526014018281526020019250505060405160208183030381529060405280519060200120610657565b90506000809054906101000a900473ffffffffffffffffffffffffffffffffffffffff1673ffffffffffffffffffffffffffffffffffffffff1661063782856106af565b73ffffffffffffffffffffffffffffffffffffffff161491505092915050565b60008160405160200180807f19457468657265756d205369676e6564204d6573736167653a0a333200000000815250601c01828152602001915050604051602081830303815290604052805190602001209050919050565b6000806000806106be8561073c565b80935081945082955050505060018684848460405160008152602001604052604051808581526020018460ff1660ff1681526020018381526020018281526020019450505050506020604051602081039080840390855afa158015610727573d6000803e3d6000fd5b50505060206040510351935050505092915050565b6000806000604184511461079b576040517f08c379a00000000000000000000000000000000000000000000000000000000081526004018080602001828103825260268152602001806108416026913960400191505060405180910390fd5b60008060006020870151925060408701519150606087015160001a9050808383955095509550505050919390925056fe53696d706c655061796d656e744368616e6e656c3a206f6e6c7920726563697069656e742063616e20636c6f736520746865206368616e6e656c53696d706c655061796d656e744368616e6e656c3a206f6e6c792073656e6465722063616e20657874656e64207468652065787069726174696f6e5265636569766572506179733a207369676e6174757265206c656e677468206d69736d61636853696d706c655061796d656e744368616e6e656c3a207369676e617475726520697320696e76616c696453696d706c655061796d656e744368616e6e656c3a20746865206368616e6e656c20686173206e6f74206578706972656453696d706c655061796d656e744368616e6e656c3a206e657745787069726174696f6e2073686f756c642062652067726561746572207468616e2065787069726174696f6ea26469706673582212202cf45857c9fc3b01a97bde8af6fa5c5d75ab2b9289f46a1afddd0916f063fa1764736f6c634300060b0033",
  "immutableReferences": {},
  "source": "// SPDX-License-Identifier: MIT\n\npragma solidity ^0.6.0;\n\ncontract SimplePaymentChannel {\n\n    address public sender;\n    address public recipient;\n    uint256 public expiration;\n\n    constructor(address _recipient,uint256 _duration) public payable {\n        sender = msg.sender;\n        recipient = _recipient;\n        // solium-disable-next-line security/no-block-members\n        expiration = now + _duration;\n    }\n\n    function isValidSignature(uint256 amount, bytes memory signature) internal view returns(bool) {\n        bytes32 message = prefixed(keccak256(abi.encodePacked(this,amount)));\n        return recoverSigner(message,signature) == sender;\n    }\n\n    function extend(uint256 newExpiration) public {\n        require(msg.sender == sender,\"SimplePaymentChannel: only sender can extend the expiration\");\n        require(newExpiration > expiration,\"SimplePaymentChannel: newExpiration should be greater than expiration\");\n        expiration = newExpiration;\n    }\n\n    function close(uint256 amount, bytes memory signature) public {\n        require(msg.sender == recipient, \"SimplePaymentChannel: only recipient can close the channel\");\n        require(isValidSignature(amount, signature), \"SimplePaymentChannel: signature is invalid\");\n\n        msg.sender.transfer(amount);\n        selfdestruct(payable(sender));\n    }\n\n    function claimTimeout() public {\n                // solium-disable-next-line security/no-block-members\n        require(now > expiration,\"SimplePaymentChannel: the channel has not expired\");\n        selfdestruct(payable(sender));\n    }\n\n    // Signature methods\n\n    function splitSignature(bytes memory sig)\n        internal\n        pure\n        returns (uint8, bytes32, bytes32)\n    {\n        require(sig.length == 65,\"ReceiverPays: signature length mismach\");\n\n        bytes32 r;\n        bytes32 s;\n        uint8 v;\n\n        /* solium-disable-next-line security/no-inline-assembly */\n        assembly {\n            // first 32 bytes, after the length prefix\n            r := mload(add(sig, 32))\n            // second 32 bytes\n            s := mload(add(sig, 64))\n            // final byte (first byte of the next 32 bytes)\n            v := byte(0, mload(add(sig, 96)))\n        }\n\n        return (v, r, s);\n    }\n\n    function recoverSigner(bytes32 message, bytes memory sig)\n        internal\n        pure\n        returns (address)\n    {\n        uint8 v;\n        bytes32 r;\n        bytes32 s;\n\n        (v, r, s) = splitSignature(sig);\n\n        return ecrecover(message, v, r, s);\n    }\n\n    // Builds a prefixed hash to mimic the behavior of eth_sign.\n    function prefixed(bytes32 hash) internal pure returns (bytes32) {\n        return keccak256(abi.encodePacked(\"\\x19Ethereum Signed Message:\\n32\", hash));\n    }\n}",
  "sourcePath": "/Users/dhruvinparikh/gbc_tut/Advanced-Smart-Contracts/Advanced-Smart-Contracts/notes/intro-state-channel/demo/simple-payment-channel/contracts/SimplePaymentChannel.sol",
  "compiler": {
    "name": "solc",
    "version": "0.6.11+commit.5ef660b1.Emscripten.clang"
  },
  "schemaVersion": "3.2.0",
  "updatedAt": "2020-07-21T00:41:38.273Z",
  "networkType": "ethereum",
  "devdoc": {
    "kind": "dev",
    "methods": {},
    "version": 1
  },
  "userdoc": {
    "kind": "user",
    "methods": {},
    "version": 1
  }
}