{
  "contractName": "SimplePaymentChannel",
  "abi": [
    {
      "inputs": [
        {
          "internalType": "address",
          "name": "_recipient",
          "type": "address"
        },
        {
          "internalType": "uint256",
          "name": "_duration",
          "type": "uint256"
        }
      ],
      "stateMutability": "payable",
      "type": "constructor"
    },
    {
      "inputs": [],
      "name": "expiration",
      "outputs": [
        {
          "internalType": "uint256",
          "name": "",
          "type": "uint256"
        }
      ],
      "stateMutability": "view",
      "type": "function"
    },
    {
      "inputs": [],
      "name": "recipient",
      "outputs": [
        {
          "internalType": "address",
          "name": "",
          "type": "address"
        }
      ],
      "stateMutability": "view",
      "type": "function"
    },
    {
      "inputs": [],
      "name": "sender",
      "outputs": [
        {
          "internalType": "address",
          "name": "",
          "type": "address"
        }
      ],
      "stateMutability": "view",
      "type": "function"
    },
    {
      "inputs": [
        {
          "internalType": "uint256",
          "name": "newExpiration",
          "type": "uint256"
        }
      ],
      "name": "extend",
      "outputs": [],
      "stateMutability": "nonpayable",
      "type": "function"
    },
    {
      "inputs": [
        {
          "internalType": "uint256",
          "name": "amount",
          "type": "uint256"
        },
        {
          "internalType": "bytes",
          "name": "signature",
          "type": "bytes"
        }
      ],
      "name": "close",
      "outputs": [],
      "stateMutability": "nonpayable",
      "type": "function"
    },
    {
      "inputs": [],
      "name": "claimTimeout",
      "outputs": [],
      "stateMutability": "nonpayable",
      "type": "function"
    }
  ],
  "bytecode": "0x608060405260405162001051380380620010518339818101604052810190620000299190620000f4565b336000806101000a81548173ffffffffffffffffffffffffffffffffffffffff021916908373ffffffffffffffffffffffffffffffffffffffff16021790555081600160006101000a81548173ffffffffffffffffffffffffffffffffffffffff021916908373ffffffffffffffffffffffffffffffffffffffff1602179055508042620000b891906200013b565b60028190555050506200023e565b600081519050620000d7816200020a565b92915050565b600081519050620000ee8162000224565b92915050565b600080604083850312156200010e576200010d62000205565b5b60006200011e85828601620000c6565b92505060206200013185828601620000dd565b9150509250929050565b60006200014882620001cc565b91506200015583620001cc565b9250827fffffffffffffffffffffffffffffffffffffffffffffffffffffffffffffffff038211156200018d576200018c620001d6565b5b828201905092915050565b6000620001a582620001ac565b9050919050565b600073ffffffffffffffffffffffffffffffffffffffff82169050919050565b6000819050919050565b7f4e487b7100000000000000000000000000000000000000000000000000000000600052601160045260246000fd5b600080fd5b620002158162000198565b81146200022157600080fd5b50565b6200022f81620001cc565b81146200023b57600080fd5b50565b610e03806200024e6000396000f3fe608060405234801561001057600080fd5b50600436106100625760003560e01c80630e1da6c314610067578063415ffba7146100715780634665096d1461008d57806366d003ac146100ab57806367e404ce146100c95780639714378c146100e7575b600080fd5b61006f610103565b005b61008b6004803603810190610086919061066c565b610180565b005b6100956102d9565b6040516100a291906109b0565b60405180910390f35b6100b36102df565b6040516100c09190610890565b60405180910390f35b6100d1610305565b6040516100de9190610890565b60405180910390f35b61010160048036038101906100fc919061063f565b610329565b005b6002544211610147576040517f08c379a000000000000000000000000000000000000000000000000000000000815260040161013e90610970565b60405180910390fd5b60008054906101000a900473ffffffffffffffffffffffffffffffffffffffff1673ffffffffffffffffffffffffffffffffffffffff16ff5b600160009054906101000a900473ffffffffffffffffffffffffffffffffffffffff1673ffffffffffffffffffffffffffffffffffffffff163373ffffffffffffffffffffffffffffffffffffffff1614610210576040517f08c379a0000000000000000000000000000000000000000000000000000000008152600401610207906108f0565b60405180910390fd5b61021a8282610405565b610259576040517f08c379a000000000000000000000000000000000000000000000000000000000815260040161025090610950565b60405180910390fd5b3373ffffffffffffffffffffffffffffffffffffffff166108fc839081150290604051600060405180830381858888f1935050505015801561029f573d6000803e3d6000fd5b5060008054906101000a900473ffffffffffffffffffffffffffffffffffffffff1673ffffffffffffffffffffffffffffffffffffffff16ff5b60025481565b600160009054906101000a900473ffffffffffffffffffffffffffffffffffffffff1681565b60008054906101000a900473ffffffffffffffffffffffffffffffffffffffff1681565b60008054906101000a900473ffffffffffffffffffffffffffffffffffffffff1673ffffffffffffffffffffffffffffffffffffffff163373ffffffffffffffffffffffffffffffffffffffff16146103b7576040517f08c379a00000000000000000000000000000000000000000000000000000000081526004016103ae90610910565b60405180910390fd5b60025481116103fb576040517f08c379a00000000000000000000000000000000000000000000000000000000081526004016103f290610990565b60405180910390fd5b8060028190555050565b600080610439308560405160200161041e92919061083e565b6040516020818303038152906040528051906020012061049c565b905060008054906101000a900473ffffffffffffffffffffffffffffffffffffffff1673ffffffffffffffffffffffffffffffffffffffff1661047c82856104cc565b73ffffffffffffffffffffffffffffffffffffffff161491505092915050565b6000816040516020016104af919061086a565b604051602081830303815290604052805190602001209050919050565b6000806000806104db85610541565b8093508194508295505050506001868484846040516000815260200160405260405161050a94939291906108ab565b6020604051602081039080840390855afa15801561052c573d6000803e3d6000fd5b50505060206040510351935050505092915050565b6000806000604184511461058a576040517f08c379a000000000000000000000000000000000000000000000000000000000815260040161058190610930565b60405180910390fd5b60008060006020870151925060408701519150606087015160001a90508083839550955095505050509193909250565b60006105cd6105c8846109f0565b6109cb565b9050828152602081018484840111156105e9576105e8610b60565b5b6105f4848285610ab4565b509392505050565b600082601f83011261061157610610610b5b565b5b81356106218482602086016105ba565b91505092915050565b60008135905061063981610db6565b92915050565b60006020828403121561065557610654610b6a565b5b60006106638482850161062a565b91505092915050565b6000806040838503121561068357610682610b6a565b5b60006106918582860161062a565b925050602083013567ffffffffffffffff8111156106b2576106b1610b65565b5b6106be858286016105fc565b9150509250929050565b6106d181610a3d565b82525050565b6106e081610a4f565b82525050565b6106f76106f282610a4f565b610b06565b82525050565b61070e61070982610a90565b610af4565b82525050565b6000610721603a83610a21565b915061072c82610b8d565b604082019050919050565b6000610744601c83610a32565b915061074f82610bdc565b601c82019050919050565b6000610767603b83610a21565b915061077282610c05565b604082019050919050565b600061078a602683610a21565b915061079582610c54565b604082019050919050565b60006107ad602a83610a21565b91506107b882610ca3565b604082019050919050565b60006107d0603183610a21565b91506107db82610cf2565b604082019050919050565b60006107f3604583610a21565b91506107fe82610d41565b606082019050919050565b61081281610a79565b82525050565b61082961082482610a79565b610b22565b82525050565b61083881610a83565b82525050565b600061084a82856106fd565b60148201915061085a8284610818565b6020820191508190509392505050565b600061087582610737565b915061088182846106e6565b60208201915081905092915050565b60006020820190506108a560008301846106c8565b92915050565b60006080820190506108c060008301876106d7565b6108cd602083018661082f565b6108da60408301856106d7565b6108e760608301846106d7565b95945050505050565b6000602082019050818103600083015261090981610714565b9050919050565b600060208201905081810360008301526109298161075a565b9050919050565b600060208201905081810360008301526109498161077d565b9050919050565b60006020820190508181036000830152610969816107a0565b9050919050565b60006020820190508181036000830152610989816107c3565b9050919050565b600060208201905081810360008301526109a9816107e6565b9050919050565b60006020820190506109c56000830184610809565b92915050565b60006109d56109e6565b90506109e18282610ac3565b919050565b6000604051905090565b600067ffffffffffffffff821115610a0b57610a0a610b2c565b5b610a1482610b6f565b9050602081019050919050565b600082825260208201905092915050565b600081905092915050565b6000610a4882610a59565b9050919050565b6000819050919050565b600073ffffffffffffffffffffffffffffffffffffffff82169050919050565b6000819050919050565b600060ff82169050919050565b6000610a9b82610aa2565b9050919050565b6000610aad82610a59565b9050919050565b82818337600083830152505050565b610acc82610b6f565b810181811067ffffffffffffffff82111715610aeb57610aea610b2c565b5b80604052505050565b6000610aff82610b10565b9050919050565b6000819050919050565b6000610b1b82610b80565b9050919050565b6000819050919050565b7f4e487b7100000000000000000000000000000000000000000000000000000000600052604160045260246000fd5b600080fd5b600080fd5b600080fd5b600080fd5b6000601f19601f8301169050919050565b60008160601b9050919050565b7f53696d706c655061796d656e744368616e6e656c3a206f6e6c7920726563697060008201527f69656e742063616e20636c6f736520746865206368616e6e656c000000000000602082015250565b7f19457468657265756d205369676e6564204d6573736167653a0a333200000000600082015250565b7f53696d706c655061796d656e744368616e6e656c3a206f6e6c792073656e646560008201527f722063616e20657874656e64207468652065787069726174696f6e0000000000602082015250565b7f5265636569766572506179733a207369676e6174757265206c656e677468206d60008201527f69736d6163680000000000000000000000000000000000000000000000000000602082015250565b7f53696d706c655061796d656e744368616e6e656c3a207369676e61747572652060008201527f697320696e76616c696400000000000000000000000000000000000000000000602082015250565b7f53696d706c655061796d656e744368616e6e656c3a20746865206368616e6e6560008201527f6c20686173206e6f742065787069726564000000000000000000000000000000602082015250565b7f53696d706c655061796d656e744368616e6e656c3a206e65774578706972617460008201527f696f6e2073686f756c642062652067726561746572207468616e20657870697260208201527f6174696f6e000000000000000000000000000000000000000000000000000000604082015250565b610dbf81610a79565b8114610dca57600080fd5b5056fea26469706673582212207403b7a269463306aabca6c88c3603fe4c05d3929057c3361eb29a10d201b1b964736f6c63430008060033",
  "immutableReferences": {},
  "source": "// SPDX-License-Identifier: MIT\n\npragma solidity ^0.8.4;\n\ncontract SimplePaymentChannel {\n\n    address public sender;\n    address public recipient;\n    uint256 public expiration;\n\n    constructor(address _recipient,uint256 _duration) payable {\n        sender = msg.sender;\n        recipient = _recipient;\n        // solium-disable-next-line security/no-block-members\n        expiration = block.timestamp + _duration;\n    }\n\n    function isValidSignature(uint256 amount, bytes memory signature) internal view returns(bool) {\n        bytes32 message = prefixed(keccak256(abi.encodePacked(this,amount)));\n        return recoverSigner(message,signature) == sender;\n    }\n\n    function extend(uint256 newExpiration) public {\n        require(msg.sender == sender,\"SimplePaymentChannel: only sender can extend the expiration\");\n        require(newExpiration > expiration,\"SimplePaymentChannel: newExpiration should be greater than expiration\");\n        expiration = newExpiration;\n    }\n\n    function close(uint256 amount, bytes memory signature) public {\n        require(msg.sender == recipient, \"SimplePaymentChannel: only recipient can close the channel\");\n        require(isValidSignature(amount, signature), \"SimplePaymentChannel: signature is invalid\");\n\n        payable(msg.sender).transfer(amount);\n        selfdestruct(payable(sender));\n    }\n\n    function claimTimeout() public {\n                // solium-disable-next-line security/no-block-members\n        require(block.timestamp > expiration,\"SimplePaymentChannel: the channel has not expired\");\n        selfdestruct(payable(sender));\n    }\n\n    // Signature methods\n\n    function splitSignature(bytes memory sig)\n        internal\n        pure\n        returns (uint8, bytes32, bytes32)\n    {\n        require(sig.length == 65,\"ReceiverPays: signature length mismach\");\n\n        bytes32 r;\n        bytes32 s;\n        uint8 v;\n\n        /* solium-disable-next-line security/no-inline-assembly */\n        assembly {\n            // first 32 bytes, after the length prefix\n            r := mload(add(sig, 32))\n            // second 32 bytes\n            s := mload(add(sig, 64))\n            // final byte (first byte of the next 32 bytes)\n            v := byte(0, mload(add(sig, 96)))\n        }\n\n        return (v, r, s);\n    }\n\n    function recoverSigner(bytes32 message, bytes memory sig)\n        internal\n        pure\n        returns (address)\n    {\n        uint8 v;\n        bytes32 r;\n        bytes32 s;\n\n        (v, r, s) = splitSignature(sig);\n\n        return ecrecover(message, v, r, s);\n    }\n\n    // Builds a prefixed hash to mimic the behavior of eth_sign.\n    function prefixed(bytes32 hash) internal pure returns (bytes32) {\n        return keccak256(abi.encodePacked(\"\\x19Ethereum Signed Message:\\n32\", hash));\n    }\n}",
  "sourcePath": "/Users/dhruvin/gbc/bcdv-1013/Advanced-Smart-Contracts/notes/intro-state-channel/demo/simple-payment-channel/contracts/SimplePaymentChannel.sol",
  "compiler": {
    "name": "solc",
    "version": "0.8.6+commit.11564f7e.Emscripten.clang"
  },
  "schemaVersion": "3.4.1",
  "updatedAt": "2021-07-23T00:46:13.154Z",
  "devdoc": {
    "kind": "dev",
    "methods": {},
    "version": 1
  },
  "userdoc": {
    "kind": "user",
    "methods": {},
    "version": 1
  }
}