{
  "contractName": "LongLivedPaymentChannel",
  "abi": [
    {
      "inputs": [
        {
          "internalType": "address",
          "name": "_recipient",
          "type": "address"
        },
        {
          "internalType": "uint256",
          "name": "_closeDuration",
          "type": "uint256"
        }
      ],
      "stateMutability": "payable",
      "type": "constructor"
    },
    {
      "anonymous": false,
      "inputs": [],
      "name": "StartSenderClose",
      "type": "event"
    },
    {
      "inputs": [],
      "name": "closeDuration",
      "outputs": [
        {
          "internalType": "uint256",
          "name": "",
          "type": "uint256"
        }
      ],
      "stateMutability": "view",
      "type": "function"
    },
    {
      "inputs": [],
      "name": "expiration",
      "outputs": [
        {
          "internalType": "uint256",
          "name": "",
          "type": "uint256"
        }
      ],
      "stateMutability": "view",
      "type": "function"
    },
    {
      "inputs": [],
      "name": "recipient",
      "outputs": [
        {
          "internalType": "address",
          "name": "",
          "type": "address"
        }
      ],
      "stateMutability": "view",
      "type": "function"
    },
    {
      "inputs": [],
      "name": "sender",
      "outputs": [
        {
          "internalType": "address",
          "name": "",
          "type": "address"
        }
      ],
      "stateMutability": "view",
      "type": "function"
    },
    {
      "inputs": [],
      "name": "withdrawn",
      "outputs": [
        {
          "internalType": "uint256",
          "name": "",
          "type": "uint256"
        }
      ],
      "stateMutability": "view",
      "type": "function"
    },
    {
      "inputs": [
        {
          "internalType": "uint256",
          "name": "amount",
          "type": "uint256"
        },
        {
          "internalType": "bytes",
          "name": "signature",
          "type": "bytes"
        }
      ],
      "name": "close",
      "outputs": [],
      "stateMutability": "nonpayable",
      "type": "function"
    },
    {
      "inputs": [],
      "name": "startSenderClose",
      "outputs": [],
      "stateMutability": "nonpayable",
      "type": "function"
    },
    {
      "inputs": [],
      "name": "claimTimeout",
      "outputs": [],
      "stateMutability": "nonpayable",
      "type": "function"
    },
    {
      "inputs": [],
      "name": "deposit",
      "outputs": [],
      "stateMutability": "payable",
      "type": "function"
    },
    {
      "inputs": [
        {
          "internalType": "uint256",
          "name": "amountAuthorized",
          "type": "uint256"
        },
        {
          "internalType": "bytes",
          "name": "signature",
          "type": "bytes"
        }
      ],
      "name": "withdraw",
      "outputs": [],
      "stateMutability": "nonpayable",
      "type": "function"
    }
  ],
  "bytecode": "0x60806040527fffffffffffffffffffffffffffffffffffffffffffffffffffffffffffffffff600455604051620016213803806200162183398181016040528101906200004d91906200010b565b336000806101000a81548173ffffffffffffffffffffffffffffffffffffffff021916908373ffffffffffffffffffffffffffffffffffffffff16021790555081600160006101000a81548173ffffffffffffffffffffffffffffffffffffffff021916908373ffffffffffffffffffffffffffffffffffffffff160217905550806003819055505050620001c9565b600081519050620000ee8162000195565b92915050565b6000815190506200010581620001af565b92915050565b6000806040838503121562000125576200012462000190565b5b60006200013585828601620000dd565b92505060206200014885828601620000f4565b9150509250929050565b60006200015f8262000166565b9050919050565b600073ffffffffffffffffffffffffffffffffffffffff82169050919050565b6000819050919050565b600080fd5b620001a08162000152565b8114620001ac57600080fd5b50565b620001ba8162000186565b8114620001c657600080fd5b50565b61144880620001d96000396000f3fe6080604052600436106100915760003560e01c806366d003ac1161005957806366d003ac1461014157806367e404ce1461016c578063ac89463314610197578063c80ec522146101c2578063d0e30db0146101ed57610091565b8063030ba25d146100965780630e1da6c3146100bf5780633646362d146100d6578063415ffba7146100ed5780634665096d14610116575b600080fd5b3480156100a257600080fd5b506100bd60048036038101906100b891906109b0565b6101f7565b005b3480156100cb57600080fd5b506100d461038b565b005b3480156100e257600080fd5b506100eb61040f565b005b3480156100f957600080fd5b50610114600480360381019061010f91906109b0565b6104df565b005b34801561012257600080fd5b5061012b61068a565b6040516101389190610e00565b60405180910390f35b34801561014d57600080fd5b50610156610690565b6040516101639190610c60565b60405180910390f35b34801561017857600080fd5b506101816106b6565b60405161018e9190610c60565b60405180910390f35b3480156101a357600080fd5b506101ac6106da565b6040516101b99190610e00565b60405180910390f35b3480156101ce57600080fd5b506101d76106e0565b6040516101e49190610e00565b60405180910390f35b6101f56106e6565b005b600160009054906101000a900473ffffffffffffffffffffffffffffffffffffffff1673ffffffffffffffffffffffffffffffffffffffff163373ffffffffffffffffffffffffffffffffffffffff1614610287576040517f08c379a000000000000000000000000000000000000000000000000000000000815260040161027e90610da0565b60405180910390fd5b6102918282610776565b6102d0576040517f08c379a00000000000000000000000000000000000000000000000000000000081526004016102c790610d80565b60405180910390fd5b6002548211610314576040517f08c379a000000000000000000000000000000000000000000000000000000000815260040161030b90610d00565b60405180910390fd5b6000600254836103249190610ee3565b905080600260008282546103389190610e8d565b925050819055503373ffffffffffffffffffffffffffffffffffffffff166108fc829081150290604051600060405180830381858888f19350505050158015610385573d6000803e3d6000fd5b50505050565b6004544210156103d0576040517f08c379a00000000000000000000000000000000000000000000000000000000081526004016103c790610d40565b60405180910390fd5b60008060009054906101000a900473ffffffffffffffffffffffffffffffffffffffff1690508073ffffffffffffffffffffffffffffffffffffffff16ff5b60008054906101000a900473ffffffffffffffffffffffffffffffffffffffff1673ffffffffffffffffffffffffffffffffffffffff163373ffffffffffffffffffffffffffffffffffffffff161461049d576040517f08c379a000000000000000000000000000000000000000000000000000000000815260040161049490610d20565b60405180910390fd5b7f2d8a27449487293626b9d3ab009ad632728ba7f09b962be5ab13c66157598d8860405160405180910390a1600354426104d79190610e8d565b600481905550565b600160009054906101000a900473ffffffffffffffffffffffffffffffffffffffff1673ffffffffffffffffffffffffffffffffffffffff163373ffffffffffffffffffffffffffffffffffffffff161461056f576040517f08c379a000000000000000000000000000000000000000000000000000000000815260040161056690610dc0565b60405180910390fd5b6105798282610776565b6105b8576040517f08c379a00000000000000000000000000000000000000000000000000000000081526004016105af90610ce0565b60405180910390fd5b6002548210156105fd576040517f08c379a00000000000000000000000000000000000000000000000000000000081526004016105f490610cc0565b60405180910390fd5b3373ffffffffffffffffffffffffffffffffffffffff166108fc600254846106259190610ee3565b9081150290604051600060405180830381858888f19350505050158015610650573d6000803e3d6000fd5b5060008054906101000a900473ffffffffffffffffffffffffffffffffffffffff1673ffffffffffffffffffffffffffffffffffffffff16ff5b60045481565b600160009054906101000a900473ffffffffffffffffffffffffffffffffffffffff1681565b60008054906101000a900473ffffffffffffffffffffffffffffffffffffffff1681565b60035481565b60025481565b60008054906101000a900473ffffffffffffffffffffffffffffffffffffffff1673ffffffffffffffffffffffffffffffffffffffff163373ffffffffffffffffffffffffffffffffffffffff1614610774576040517f08c379a000000000000000000000000000000000000000000000000000000000815260040161076b90610de0565b60405180910390fd5b565b6000806107aa308560405160200161078f929190610c0e565b6040516020818303038152906040528051906020012061080d565b905060008054906101000a900473ffffffffffffffffffffffffffffffffffffffff1673ffffffffffffffffffffffffffffffffffffffff166107ed828561083d565b73ffffffffffffffffffffffffffffffffffffffff161491505092915050565b6000816040516020016108209190610c3a565b604051602081830303815290604052805190602001209050919050565b60008060008061084c856108b2565b8093508194508295505050506001868484846040516000815260200160405260405161087b9493929190610c7b565b6020604051602081039080840390855afa15801561089d573d6000803e3d6000fd5b50505060206040510351935050505092915050565b600080600060418451146108fb576040517f08c379a00000000000000000000000000000000000000000000000000000000081526004016108f290610d60565b60405180910390fd5b60008060006020870151925060408701519150606087015160001a90508083839550955095505050509193909250565b600061093e61093984610e40565b610e1b565b90508281526020810184848401111561095a57610959611069565b5b610965848285610f8e565b509392505050565b600082601f83011261098257610981611064565b5b813561099284826020860161092b565b91505092915050565b6000813590506109aa816113fb565b92915050565b600080604083850312156109c7576109c6611073565b5b60006109d58582860161099b565b925050602083013567ffffffffffffffff8111156109f6576109f561106e565b5b610a028582860161096d565b9150509250929050565b610a1581610f17565b82525050565b610a2481610f29565b82525050565b610a3b610a3682610f29565b610fe0565b82525050565b610a52610a4d82610f6a565b610fce565b82525050565b6000610a65601c83610e82565b9150610a7082611096565b601c82019050919050565b6000610a88604983610e71565b9150610a93826110bf565b606082019050919050565b6000610aab602a83610e71565b9150610ab682611134565b604082019050919050565b6000610ace603f83610e71565b9150610ad982611183565b604082019050919050565b6000610af1603a83610e71565b9150610afc826111d2565b604082019050919050565b6000610b14603083610e71565b9150610b1f82611221565b604082019050919050565b6000610b37602883610e71565b9150610b4282611270565b604082019050919050565b6000610b5a602f83610e71565b9150610b65826112bf565b604082019050919050565b6000610b7d603483610e71565b9150610b888261130e565b604082019050919050565b6000610ba0604083610e71565b9150610bab8261135d565b604082019050919050565b6000610bc3603083610e71565b9150610bce826113ac565b604082019050919050565b610be281610f53565b82525050565b610bf9610bf482610f53565b610ffc565b82525050565b610c0881610f5d565b82525050565b6000610c1a8285610a41565b601482019150610c2a8284610be8565b6020820191508190509392505050565b6000610c4582610a58565b9150610c518284610a2a565b60208201915081905092915050565b6000602082019050610c756000830184610a0c565b92915050565b6000608082019050610c906000830187610a1b565b610c9d6020830186610bff565b610caa6040830185610a1b565b610cb76060830184610a1b565b95945050505050565b60006020820190508181036000830152610cd981610a7b565b9050919050565b60006020820190508181036000830152610cf981610a9e565b9050919050565b60006020820190508181036000830152610d1981610ac1565b9050919050565b60006020820190508181036000830152610d3981610ae4565b9050919050565b60006020820190508181036000830152610d5981610b07565b9050919050565b60006020820190508181036000830152610d7981610b2a565b9050919050565b60006020820190508181036000830152610d9981610b4d565b9050919050565b60006020820190508181036000830152610db981610b70565b9050919050565b60006020820190508181036000830152610dd981610b93565b9050919050565b60006020820190508181036000830152610df981610bb6565b9050919050565b6000602082019050610e156000830184610bd9565b92915050565b6000610e25610e36565b9050610e318282610f9d565b919050565b6000604051905090565b600067ffffffffffffffff821115610e5b57610e5a611035565b5b610e6482611078565b9050602081019050919050565b600082825260208201905092915050565b600081905092915050565b6000610e9882610f53565b9150610ea383610f53565b9250827fffffffffffffffffffffffffffffffffffffffffffffffffffffffffffffffff03821115610ed857610ed7611006565b5b828201905092915050565b6000610eee82610f53565b9150610ef983610f53565b925082821015610f0c57610f0b611006565b5b828203905092915050565b6000610f2282610f33565b9050919050565b6000819050919050565b600073ffffffffffffffffffffffffffffffffffffffff82169050919050565b6000819050919050565b600060ff82169050919050565b6000610f7582610f7c565b9050919050565b6000610f8782610f33565b9050919050565b82818337600083830152505050565b610fa682611078565b810181811067ffffffffffffffff82111715610fc557610fc4611035565b5b80604052505050565b6000610fd982610fea565b9050919050565b6000819050919050565b6000610ff582611089565b9050919050565b6000819050919050565b7f4e487b7100000000000000000000000000000000000000000000000000000000600052601160045260246000fd5b7f4e487b7100000000000000000000000000000000000000000000000000000000600052604160045260246000fd5b600080fd5b600080fd5b600080fd5b600080fd5b6000601f19601f8301169050919050565b60008160601b9050919050565b7f19457468657265756d205369676e6564204d6573736167653a0a333200000000600082015250565b7f4c6f6e674c697665645061796d656e744368616e6e656c3a20616d6f756e742060008201527f73686f756c642062652067726561746572207468616e20657175616c20746f2060208201527f77697468647261776e0000000000000000000000000000000000000000000000604082015250565b7f4c6f6e674c697665645061796d656e744368616e6e656c3a207369676e61747560008201527f726520696e76616c696400000000000000000000000000000000000000000000602082015250565b7f4c6f6e674c697665645061796d656e744368616e6e656c3a206e6f742061757460008201527f686f72697a656420746f207769746864726177207468697320616d6f756e7400602082015250565b7f4c6f6e674c697665645061796d656e744368616e6e656c3a206f6e6c7920736560008201527f6e6465722063616e20636c6f736520746865206368616e6e656c000000000000602082015250565b7f4c6f6e674c697665645061796d656e744368616e6e656c3a2074696d6520697360008201527f206e6f7420796574206578706972656400000000000000000000000000000000602082015250565b7f4c6f6e674c697665645061796d656e744368616e6e656c3a2077726f6e67207360008201527f69676e6174757265000000000000000000000000000000000000000000000000602082015250565b7f4c6f6e674c697665645061796d656e744368616e6e656c3a207369676e61747560008201527f7265206973206e6f742076616c69640000000000000000000000000000000000602082015250565b7f4c6f6e674c697665645061796d656e744368616e6e656c3a206f6e6c7920726560008201527f63697069656e742063616e207769746864726177000000000000000000000000602082015250565b7f4c6f6e674c697665645061796d656e744368616e6e656c3a206f6e6c7920726560008201527f63697069656e7420616c6c6f77656420746f20636c6f7365206368616e6e656c602082015250565b7f4c6f6e674c697665645061796d656e744368616e6e656c3a206f6e6c7920736560008201527f6e6465722063616e206465706f73697400000000000000000000000000000000602082015250565b61140481610f53565b811461140f57600080fd5b5056fea264697066735822122093d7018cc5ecf60027f11be3d3d8c8bd9b717bedb660505800a97eb0bc529e7264736f6c63430008060033",
  "immutableReferences": {},
  "source": "// SPDX-License-Identifier: MIT\npragma solidity ^0.8.4;\n\ncontract LongLivedPaymentChannel {\n    address public sender;      // The account sending payments.\n    address public recipient;   // The account receiving the payments.\n    uint256 public withdrawn;   // How much the recipient has already withdrawn.\n\n    // How much time the recipient has to respond when the sender initiates\n    // channel closure.\n    uint256 public closeDuration;\n    // When the payment channel closes. Initially effectively infinite.\n    uint256 public expiration = 2**256-1;\n\n    constructor (address _recipient, uint256 _closeDuration)\n        payable\n    {\n        sender = msg.sender;\n        recipient = _recipient;\n        closeDuration = _closeDuration;\n    }\n\n    function isValidSignature(uint256 amount, bytes memory signature)\n        internal\n        view\n        returns (bool)\n    {\n        bytes32 message = prefixed(keccak256(abi.encodePacked(this, amount)));\n\n        // Check that the signature is from the payment sender.\n        return recoverSigner(message, signature) == sender;\n    }\n\n    // The recipient can close the channel at any time by presenting a signed\n    // amount from the sender. The recipient will be sent that amount, and the\n    // remainder will go back to the sender.\n    function close(uint256 amount, bytes memory signature) public {\n        require(msg.sender == recipient, \"LongLivedPaymentChannel: only recipient allowed to close channel\");\n        require(isValidSignature(amount, signature),\"LongLivedPaymentChannel: signature invalid\");\n\n        require(amount >= withdrawn, \"LongLivedPaymentChannel: amount should be greater than equal to withdrawn\");\n        payable(msg.sender).transfer(amount - withdrawn);\n\n        selfdestruct(payable(sender));\n    }\n\n    event StartSenderClose();\n\n    function startSenderClose() public {\n        require(msg.sender == sender,\"LongLivedPaymentChannel: only sender can close the channel\");\n        emit StartSenderClose();\n        // solium-disable-next-line security/no-block-members\n        expiration = block.timestamp + closeDuration;\n    }\n\n    // If the timeout is reached without the recipient closing the channel, then\n    // the ether is released back to the sender.\n    function claimTimeout() public {\n        // solium-disable-next-line security/no-block-members\n        require(block.timestamp >= expiration, \"LongLivedPaymentChannel: time is not yet expired\");\n        address payable pSender = payable(sender);\n        selfdestruct(pSender);\n    }\n\n    function deposit() public payable {\n        require(msg.sender == sender,\"LongLivedPaymentChannel: only sender can deposit\");\n    }\n\n    function withdraw(uint256 amountAuthorized, bytes memory signature) public {\n        require(msg.sender == recipient, \"LongLivedPaymentChannel: only recipient can withdraw\");\n\n        require(isValidSignature(amountAuthorized, signature),\"LongLivedPaymentChannel: signature is not valid\");\n\n        // Make sure there's something to withdraw (guards against underflow)\n        require(amountAuthorized > withdrawn,\"LongLivedPaymentChannel: not authorized to withdraw this amount\");\n        uint256 amountToWithdraw = amountAuthorized - withdrawn;\n\n        withdrawn += amountToWithdraw;\n        payable(msg.sender).transfer(amountToWithdraw);\n    }\n\n    function splitSignature(bytes memory sig)\n        internal\n        pure\n        returns (uint8, bytes32, bytes32)\n    {\n        require(sig.length == 65,\"LongLivedPaymentChannel: wrong signature\");\n\n        bytes32 r;\n        bytes32 s;\n        uint8 v;\n\n        // solium-disable-next-line security/no-inline-assembly\n        assembly {\n            // first 32 bytes, after the length prefix\n            r := mload(add(sig, 32))\n            // second 32 bytes\n            s := mload(add(sig, 64))\n            // final byte (first byte of the next 32 bytes)\n            v := byte(0, mload(add(sig, 96)))\n        }\n\n        return (v, r, s);\n    }\n\n    function recoverSigner(bytes32 message, bytes memory sig)\n        internal\n        pure\n        returns (address)\n    {\n        uint8 v;\n        bytes32 r;\n        bytes32 s;\n\n        (v, r, s) = splitSignature(sig);\n\n        return ecrecover(message, v, r, s);\n    }\n\n    // Builds a prefixed hash to mimic the behavior of eth_sign.\n    function prefixed(bytes32 hash) internal pure returns (bytes32) {\n        return keccak256(abi.encodePacked(\"\\x19Ethereum Signed Message:\\n32\", hash));\n    }\n}",
  "sourcePath": "/Users/dhruvin/gbc/bcdv-1013/Advanced-Smart-Contracts/notes/intro-state-channel/lab/long-lived-payment-channel/contracts/longLivedPaymentChannel.sol",
  "compiler": {
    "name": "solc",
    "version": "0.8.6+commit.11564f7e.Emscripten.clang"
  },
  "schemaVersion": "3.3.4",
  "updatedAt": "2021-07-23T00:54:16.278Z",
  "devdoc": {
    "kind": "dev",
    "methods": {},
    "version": 1
  },
  "userdoc": {
    "kind": "user",
    "methods": {},
    "version": 1
  }
}