{
  "contractName": "Delegator",
  "abi": [
    {
      "inputs": [
        {
          "internalType": "address",
          "name": "delegateAddress",
          "type": "address"
        },
        {
          "internalType": "bytes32",
          "name": "_password",
          "type": "bytes32"
        }
      ],
      "stateMutability": "nonpayable",
      "type": "constructor"
    },
    {
      "anonymous": false,
      "inputs": [
        {
          "indexed": false,
          "internalType": "bytes",
          "name": "result",
          "type": "bytes"
        }
      ],
      "name": "LogResult",
      "type": "event"
    },
    {
      "inputs": [],
      "name": "delegate",
      "outputs": [
        {
          "internalType": "address",
          "name": "",
          "type": "address"
        }
      ],
      "stateMutability": "view",
      "type": "function",
      "constant": true
    },
    {
      "inputs": [],
      "name": "owner",
      "outputs": [
        {
          "internalType": "address",
          "name": "",
          "type": "address"
        }
      ],
      "stateMutability": "view",
      "type": "function",
      "constant": true
    },
    {
      "inputs": [],
      "name": "val1",
      "outputs": [
        {
          "internalType": "bytes1",
          "name": "",
          "type": "bytes1"
        }
      ],
      "stateMutability": "view",
      "type": "function",
      "constant": true
    },
    {
      "inputs": [],
      "name": "val2",
      "outputs": [
        {
          "internalType": "uint8",
          "name": "",
          "type": "uint8"
        }
      ],
      "stateMutability": "view",
      "type": "function",
      "constant": true
    },
    {
      "inputs": [],
      "name": "val3",
      "outputs": [
        {
          "internalType": "bool",
          "name": "",
          "type": "bool"
        }
      ],
      "stateMutability": "view",
      "type": "function",
      "constant": true
    },
    {
      "inputs": [],
      "name": "val4",
      "outputs": [
        {
          "internalType": "address",
          "name": "",
          "type": "address"
        }
      ],
      "stateMutability": "view",
      "type": "function",
      "constant": true
    },
    {
      "inputs": [
        {
          "internalType": "uint256",
          "name": "_newVersion",
          "type": "uint256"
        }
      ],
      "name": "setVersion",
      "outputs": [],
      "stateMutability": "nonpayable",
      "type": "function"
    },
    {
      "inputs": [
        {
          "internalType": "address",
          "name": "_owner",
          "type": "address"
        }
      ],
      "name": "changeOwner",
      "outputs": [],
      "stateMutability": "nonpayable",
      "type": "function"
    }
  ],
  "bytecode": "0x608060405234801561001057600080fd5b506040516107bd3803806107bd8339818101604052604081101561003357600080fd5b81019080805190602001909291908051906020019092919050505033600260006101000a81548173ffffffffffffffffffffffffffffffffffffffff021916908373ffffffffffffffffffffffffffffffffffffffff16021790555081600360006101000a81548173ffffffffffffffffffffffffffffffffffffffff021916908373ffffffffffffffffffffffffffffffffffffffff1602179055508060018190555050506106d5806100e86000396000f3fe608060405234801561001057600080fd5b50600436106100885760003560e01c8063a6f9dae11161005b578063a6f9dae114610144578063bf9e206d14610188578063c82fdf36146101a8578063c89e4361146101e857610088565b8063408def1e1461008d5780638da5cb5b146100bb57806395cacbe0146100ef5780639ce5b11514610110575b600080fd5b6100b9600480360360208110156100a357600080fd5b810190808035906020019092919050505061021c565b005b6100c36103fe565b604051808273ffffffffffffffffffffffffffffffffffffffff16815260200191505060405180910390f35b6100f7610424565b604051808260ff16815260200191505060405180910390f35b610118610437565b604051808273ffffffffffffffffffffffffffffffffffffffff16815260200191505060405180910390f35b6101866004803603602081101561015a57600080fd5b81019080803573ffffffffffffffffffffffffffffffffffffffff16906020019092919050505061045d565b005b610190610655565b60405180821515815260200191505060405180910390f35b6101b0610668565b60405180827effffffffffffffffffffffffffffffffffffffffffffffffffffffffffffff1916815260200191505060405180910390f35b6101f0610679565b604051808273ffffffffffffffffffffffffffffffffffffffff16815260200191505060405180910390f35b600081604051602401808281526020019150506040516020818303038152906040527f408def1e000000000000000000000000000000000000000000000000000000007bffffffffffffffffffffffffffffffffffffffffffffffffffffffff19166020820180517bffffffffffffffffffffffffffffffffffffffffffffffffffffffff838183161783525050505090506000600360009054906101000a900473ffffffffffffffffffffffffffffffffffffffff1673ffffffffffffffffffffffffffffffffffffffff16826040518082805190602001908083835b6020831061031d57805182526020820191506020810190506020830392506102fa565b6001836020036101000a038019825116818451168082178552505050505050905001915050600060405180830381855af49150503d806000811461037d576040519150601f19603f3d011682016040523d82523d6000602084013e610382565b606091505b50509050806103f9576040517f08c379a00000000000000000000000000000000000000000000000000000000081526004018080602001828103825260148152602001807f65787465726e616c2063616c6c206661696c656400000000000000000000000081525060200191505060405180910390fd5b505050565b600260009054906101000a900473ffffffffffffffffffffffffffffffffffffffff1681565b600060019054906101000a900460ff1681565b600060039054906101000a900473ffffffffffffffffffffffffffffffffffffffff1681565b600081604051602401808273ffffffffffffffffffffffffffffffffffffffff1681526020019150506040516020818303038152906040527fa6f9dae1000000000000000000000000000000000000000000000000000000007bffffffffffffffffffffffffffffffffffffffffffffffffffffffff19166020820180517bffffffffffffffffffffffffffffffffffffffffffffffffffffffff838183161783525050505090506000600360009054906101000a900473ffffffffffffffffffffffffffffffffffffffff1673ffffffffffffffffffffffffffffffffffffffff16826040518082805190602001908083835b602083106105745780518252602082019150602081019050602083039250610551565b6001836020036101000a038019825116818451168082178552505050505050905001915050600060405180830381855af49150503d80600081146105d4576040519150601f19603f3d011682016040523d82523d6000602084013e6105d9565b606091505b5050905080610650576040517f08c379a00000000000000000000000000000000000000000000000000000000081526004018080602001828103825260148152602001807f65787465726e616c2063616c6c206661696c656400000000000000000000000081525060200191505060405180910390fd5b505050565b600060029054906101000a900460ff1681565b60008054906101000a900460f81b81565b600360009054906101000a900473ffffffffffffffffffffffffffffffffffffffff168156fea26469706673582212205353830589a74a79bc7fd8776d29081d5522dee944b4d82d7e04c591da62192264736f6c63430007060033",
  "immutableReferences": {},
  "source": "// SPDX-License-Identifier: MIT\n\npragma solidity >=0.7.0 <=0.8.1;\n\ncontract Delegator {\n    // slot 0\n    bytes1 public val1;\n    uint8 public val2;\n    bool public val3;\n    address public val4;\n    // slot 1\n    bytes32 password;\n    // slot 2\n    address public owner;\n    // slot 3\n    address public delegate; // contract to delegate calls to\n\n    event LogResult(bytes result);\n\n    constructor(address delegateAddress, bytes32 _password) {\n        owner = msg.sender;\n        delegate = delegateAddress;\n        password = _password;\n    }\n\n    function setVersion(uint256 _newVersion) public {\n        bytes memory _abiData =\n            abi.encodeWithSignature(\"setVersion(uint256)\", _newVersion);\n        /* solium-disable-next-line security/no-low-level-calls*/\n        (bool _success, ) = delegate.delegatecall(_abiData);\n        require(_success, \"external call failed\");\n    }\n\n    function changeOwner(address _owner) public {\n        bytes memory _abiData =\n            abi.encodeWithSignature(\"changeOwner(address)\", _owner);\n        /* solium-disable-next-line security/no-low-level-calls*/\n        (bool _success, ) = delegate.delegatecall(_abiData);\n        require(_success, \"external call failed\");\n    }\n}\n",
  "sourcePath": "/Users/dhruvin/gbc/bcdv-1013/Advanced-Smart-Contracts/notes/storage-exception-debugging/demo/storage/contracts/Delegator.sol",
  "compiler": {
    "name": "solc",
    "version": "0.7.6+commit.7338295f.Emscripten.clang"
  },
  "schemaVersion": "3.3.3",
  "updatedAt": "2021-03-15T00:21:17.662Z",
  "networkType": "ethereum",
  "devdoc": {
    "kind": "dev",
    "methods": {},
    "version": 1
  },
  "userdoc": {
    "kind": "user",
    "methods": {},
    "version": 1
  }
}