{
  "contractName": "Delegator",
  "abi": [
    {
      "inputs": [
        {
          "internalType": "address",
          "name": "delegateAddress",
          "type": "address"
        }
      ],
      "stateMutability": "nonpayable",
      "type": "constructor"
    },
    {
      "anonymous": false,
      "inputs": [
        {
          "indexed": false,
          "internalType": "bytes",
          "name": "result",
          "type": "bytes"
        }
      ],
      "name": "LogResult",
      "type": "event"
    },
    {
      "inputs": [],
      "name": "delegate",
      "outputs": [
        {
          "internalType": "address",
          "name": "",
          "type": "address"
        }
      ],
      "stateMutability": "view",
      "type": "function"
    },
    {
      "inputs": [],
      "name": "owner",
      "outputs": [
        {
          "internalType": "address",
          "name": "",
          "type": "address"
        }
      ],
      "stateMutability": "view",
      "type": "function"
    },
    {
      "inputs": [],
      "name": "val1",
      "outputs": [
        {
          "internalType": "bytes1",
          "name": "",
          "type": "bytes1"
        }
      ],
      "stateMutability": "view",
      "type": "function"
    },
    {
      "inputs": [],
      "name": "val2",
      "outputs": [
        {
          "internalType": "uint8",
          "name": "",
          "type": "uint8"
        }
      ],
      "stateMutability": "view",
      "type": "function"
    },
    {
      "inputs": [],
      "name": "val3",
      "outputs": [
        {
          "internalType": "bool",
          "name": "",
          "type": "bool"
        }
      ],
      "stateMutability": "view",
      "type": "function"
    },
    {
      "inputs": [],
      "name": "val4",
      "outputs": [
        {
          "internalType": "address",
          "name": "",
          "type": "address"
        }
      ],
      "stateMutability": "view",
      "type": "function"
    },
    {
      "inputs": [],
      "name": "val5",
      "outputs": [
        {
          "internalType": "string",
          "name": "",
          "type": "string"
        }
      ],
      "stateMutability": "view",
      "type": "function"
    },
    {
      "inputs": [
        {
          "internalType": "uint256",
          "name": "newVersion",
          "type": "uint256"
        }
      ],
      "name": "setVersion",
      "outputs": [],
      "stateMutability": "nonpayable",
      "type": "function"
    }
  ],
  "bytecode": "0x608060405234801561001057600080fd5b5060405161068f38038061068f8339818101604052602081101561003357600080fd5b810190808051906020019092919050505033600260006101000a81548173ffffffffffffffffffffffffffffffffffffffff021916908373ffffffffffffffffffffffffffffffffffffffff16021790555080600360006101000a81548173ffffffffffffffffffffffffffffffffffffffff021916908373ffffffffffffffffffffffffffffffffffffffff160217905550506105b9806100d66000396000f3fe608060405234801561001057600080fd5b50600436106100875760003560e01c80639ce5b1151161005b5780639ce5b11514610192578063bf9e206d146101c6578063c82fdf36146101e6578063c89e43611461022657610087565b806280c5b81461008c578063408def1e1461010f5780638da5cb5b1461013d57806395cacbe014610171575b600080fd5b61009461025a565b6040518080602001828103825283818151815260200191508051906020019080838360005b838110156100d45780820151818401526020810190506100b9565b50505050905090810190601f1680156101015780820380516001836020036101000a031916815260200191505b509250505060405180910390f35b61013b6004803603602081101561012557600080fd5b81019080803590602001909291905050506102f8565b005b6101456104da565b604051808273ffffffffffffffffffffffffffffffffffffffff16815260200191505060405180910390f35b610179610500565b604051808260ff16815260200191505060405180910390f35b61019a610513565b604051808273ffffffffffffffffffffffffffffffffffffffff16815260200191505060405180910390f35b6101ce610539565b60405180821515815260200191505060405180910390f35b6101ee61054c565b60405180827effffffffffffffffffffffffffffffffffffffffffffffffffffffffffffff1916815260200191505060405180910390f35b61022e61055d565b604051808273ffffffffffffffffffffffffffffffffffffffff16815260200191505060405180910390f35b60018054600181600116156101000203166002900480601f0160208091040260200160405190810160405280929190818152602001828054600181600116156101000203166002900480156102f05780601f106102c5576101008083540402835291602001916102f0565b820191906000526020600020905b8154815290600101906020018083116102d357829003601f168201915b505050505081565b600081604051602401808281526020019150506040516020818303038152906040527f408def1e000000000000000000000000000000000000000000000000000000007bffffffffffffffffffffffffffffffffffffffffffffffffffffffff19166020820180517bffffffffffffffffffffffffffffffffffffffffffffffffffffffff838183161783525050505090506000600360009054906101000a900473ffffffffffffffffffffffffffffffffffffffff1673ffffffffffffffffffffffffffffffffffffffff16826040518082805190602001908083835b602083106103f957805182526020820191506020810190506020830392506103d6565b6001836020036101000a038019825116818451168082178552505050505050905001915050600060405180830381855af49150503d8060008114610459576040519150601f19603f3d011682016040523d82523d6000602084013e61045e565b606091505b50509050806104d5576040517f08c379a00000000000000000000000000000000000000000000000000000000081526004018080602001828103825260148152602001807f65787465726e616c2063616c6c206661696c656400000000000000000000000081525060200191505060405180910390fd5b505050565b600260009054906101000a900473ffffffffffffffffffffffffffffffffffffffff1681565b600060019054906101000a900460ff1681565b600060039054906101000a900473ffffffffffffffffffffffffffffffffffffffff1681565b600060029054906101000a900460ff1681565b60008054906101000a900460f81b81565b600360009054906101000a900473ffffffffffffffffffffffffffffffffffffffff168156fea26469706673582212203ac467de56bd99e0d93c471b6aad447a8fe92214c59ce08b0aacb8e48c86e16564736f6c63430007060033",
  "immutableReferences": {},
  "source": "// SPDX-License-Identifier: MIT\n\npragma solidity >=0.7.0 <=0.8.1;\n\ncontract Delegator {\n    bytes1 public val1;   // storage slot 0\n    uint8 public val2;   // storage slot 0\n    bool public val3;   // storage slot 0\n    address public val4;   // storage slot 0\n    string public val5;   // storage slot 1\n    address public owner;    // storage slot 2\n    address public delegate;  // contract to delegate calls to\n\n    event LogResult(bytes result);\n\n    constructor(address delegateAddress) {\n        owner = msg.sender;\n        delegate = delegateAddress;\n    }\n\n    function setVersion(uint newVersion) public {\n        bytes memory abiData = abi.encodeWithSignature(\"setVersion(uint256)\", newVersion);\n        /* solium-disable-next-line security/no-low-level-calls*/\n        (bool success, ) = delegate.delegatecall(abiData);\n        require(success, \"external call failed\");\n    }\n}\n",
  "sourcePath": "/Users/dhruvin/gbc/bcdv-1013/Advanced-Smart-Contracts/notes/storage-exception-debugging/demo/storage/contracts/Delegator.sol",
  "compiler": {
    "name": "solc",
    "version": "0.7.6+commit.7338295f.Emscripten.clang"
  },
  "schemaVersion": "3.3.3",
  "updatedAt": "2021-03-08T03:47:47.516Z",
  "devdoc": {
    "kind": "dev",
    "methods": {},
    "version": 1
  },
  "userdoc": {
    "kind": "user",
    "methods": {},
    "version": 1
  }
}