{
  "contractName": "VersionLibrary",
  "abi": [
    {
      "inputs": [],
      "name": "version",
      "outputs": [
        {
          "internalType": "uint256",
          "name": "",
          "type": "uint256"
        }
      ],
      "stateMutability": "view",
      "type": "function"
    },
    {
      "inputs": [
        {
          "internalType": "uint256",
          "name": "newVersion",
          "type": "uint256"
        }
      ],
      "name": "setVersion",
      "outputs": [],
      "stateMutability": "nonpayable",
      "type": "function"
    }
  ],
  "bytecode": "0x6080604052600160005534801561001557600080fd5b5060c4806100246000396000f3fe6080604052348015600f57600080fd5b506004361060325760003560e01c8063408def1e14603757806354fd4d50146062575b600080fd5b606060048036036020811015604b57600080fd5b8101908080359060200190929190505050607e565b005b60686088565b6040518082815260200191505060405180910390f35b8060008190555050565b6000548156fea2646970667358221220ef9a44c543aa36968071ff52be4761d3e8ef835e4c7d1e1965b942612b975a8f64736f6c63430007060033",
  "immutableReferences": {},
  "source": "// SPDX-License-Identifier: MIT\n\npragma solidity >=0.7.0 <=0.8.1;\n\ncontract VersionLibrary {\n    uint public version = 1;\n\n    function setVersion(uint newVersion)   public {\n        version = newVersion;\n    }\n}\n",
  "sourcePath": "/Users/dhruvin/gbc/bcdv-1013/Advanced-Smart-Contracts/notes/storage-exception-debugging/demo/storage/contracts/VersionLibrary.sol",
  "compiler": {
    "name": "solc",
    "version": "0.7.6+commit.7338295f.Emscripten.clang"
  },
  "schemaVersion": "3.3.3",
  "updatedAt": "2021-03-08T03:47:47.520Z",
  "devdoc": {
    "kind": "dev",
    "methods": {},
    "version": 1
  },
  "userdoc": {
    "kind": "user",
    "methods": {},
    "version": 1
  }
}