{
  "contractName": "VersionLibrary",
  "abi": [
    {
      "inputs": [],
      "name": "delegate",
      "outputs": [
        {
          "internalType": "address",
          "name": "",
          "type": "address"
        }
      ],
      "stateMutability": "view",
      "type": "function",
      "constant": true
    },
    {
      "inputs": [],
      "name": "owner",
      "outputs": [
        {
          "internalType": "address",
          "name": "",
          "type": "address"
        }
      ],
      "stateMutability": "view",
      "type": "function",
      "constant": true
    },
    {
      "inputs": [],
      "name": "val1",
      "outputs": [
        {
          "internalType": "bytes1",
          "name": "",
          "type": "bytes1"
        }
      ],
      "stateMutability": "view",
      "type": "function",
      "constant": true
    },
    {
      "inputs": [],
      "name": "val2",
      "outputs": [
        {
          "internalType": "uint8",
          "name": "",
          "type": "uint8"
        }
      ],
      "stateMutability": "view",
      "type": "function",
      "constant": true
    },
    {
      "inputs": [],
      "name": "val3",
      "outputs": [
        {
          "internalType": "bool",
          "name": "",
          "type": "bool"
        }
      ],
      "stateMutability": "view",
      "type": "function",
      "constant": true
    },
    {
      "inputs": [],
      "name": "val4",
      "outputs": [
        {
          "internalType": "address",
          "name": "",
          "type": "address"
        }
      ],
      "stateMutability": "view",
      "type": "function",
      "constant": true
    },
    {
      "inputs": [],
      "name": "version",
      "outputs": [
        {
          "internalType": "uint256",
          "name": "",
          "type": "uint256"
        }
      ],
      "stateMutability": "view",
      "type": "function",
      "constant": true
    },
    {
      "inputs": [
        {
          "internalType": "uint256",
          "name": "newVersion",
          "type": "uint256"
        }
      ],
      "name": "setVersion",
      "outputs": [],
      "stateMutability": "nonpayable",
      "type": "function"
    },
    {
      "inputs": [
        {
          "internalType": "address",
          "name": "_owner",
          "type": "address"
        }
      ],
      "name": "changeOwner",
      "outputs": [],
      "stateMutability": "nonpayable",
      "type": "function"
    }
  ],
  "bytecode": "0x6080604052600160045534801561001557600080fd5b50610378806100256000396000f3fe608060405234801561001057600080fd5b50600436106100935760003560e01c80639ce5b115116100665780639ce5b11514610139578063a6f9dae11461016d578063bf9e206d146101b1578063c82fdf36146101d1578063c89e43611461021157610093565b8063408def1e1461009857806354fd4d50146100c65780638da5cb5b146100e457806395cacbe014610118575b600080fd5b6100c4600480360360208110156100ae57600080fd5b8101908080359060200190929190505050610245565b005b6100ce61024f565b6040518082815260200191505060405180910390f35b6100ec610255565b604051808273ffffffffffffffffffffffffffffffffffffffff16815260200191505060405180910390f35b61012061027b565b604051808260ff16815260200191505060405180910390f35b61014161028e565b604051808273ffffffffffffffffffffffffffffffffffffffff16815260200191505060405180910390f35b6101af6004803603602081101561018357600080fd5b81019080803573ffffffffffffffffffffffffffffffffffffffff1690602001909291905050506102b4565b005b6101b96102f8565b60405180821515815260200191505060405180910390f35b6101d961030b565b60405180827effffffffffffffffffffffffffffffffffffffffffffffffffffffffffffff1916815260200191505060405180910390f35b61021961031c565b604051808273ffffffffffffffffffffffffffffffffffffffff16815260200191505060405180910390f35b8060048190555050565b60045481565b600260009054906101000a900473ffffffffffffffffffffffffffffffffffffffff1681565b600060019054906101000a900460ff1681565b600060039054906101000a900473ffffffffffffffffffffffffffffffffffffffff1681565b80600260006101000a81548173ffffffffffffffffffffffffffffffffffffffff021916908373ffffffffffffffffffffffffffffffffffffffff16021790555050565b600060029054906101000a900460ff1681565b60008054906101000a900460f81b81565b600360009054906101000a900473ffffffffffffffffffffffffffffffffffffffff168156fea2646970667358221220f5867e127f4faddad9ba70c8464de76c2ed67f2bd5e24a30f6eb5a567a3cfc3e64736f6c63430007060033",
  "immutableReferences": {},
  "source": "// SPDX-License-Identifier: MIT\n\npragma solidity >=0.7.0 <=0.8.1;\n\ncontract VersionLibrary {\n    // slot 0\n    bytes1 public val1; \n    uint8 public val2; \n    bool public val3; \n    address public val4;\n    // slot 1 \n    bytes32 password; \n    // slot 2\n    address public owner;\n    // slot 3\n    address public delegate; // contract to delegate calls to\n    uint public version = 1;\n    \n\n    function setVersion(uint newVersion)   public {\n        version = newVersion;\n    }\n\n    function changeOwner(address _owner) public {\n        owner = _owner;\n    }\n}\n",
  "sourcePath": "/Users/dhruvin/gbc/bcdv-1013/Advanced-Smart-Contracts/notes/storage-exception-debugging/demo/storage/contracts/VersionLibrary.sol",
  "compiler": {
    "name": "solc",
    "version": "0.7.6+commit.7338295f.Emscripten.clang"
  },
  "schemaVersion": "3.3.3",
  "updatedAt": "2021-03-15T00:21:17.664Z",
  "networkType": "ethereum",
  "devdoc": {
    "kind": "dev",
    "methods": {},
    "version": 1
  },
  "userdoc": {
    "kind": "user",
    "methods": {},
    "version": 1
  }
}