{
  "contractName": "MasterCaller",
  "abi": [
    {
      "inputs": [
        {
          "internalType": "address",
          "name": "_slave",
          "type": "address"
        }
      ],
      "name": "upgradeSlave",
      "outputs": [],
      "stateMutability": "nonpayable",
      "type": "function"
    },
    {
      "inputs": [
        {
          "internalType": "uint256",
          "name": "_value",
          "type": "uint256"
        }
      ],
      "name": "setValue",
      "outputs": [],
      "stateMutability": "nonpayable",
      "type": "function"
    },
    {
      "inputs": [],
      "name": "getValue",
      "outputs": [
        {
          "internalType": "uint256",
          "name": "",
          "type": "uint256"
        }
      ],
      "stateMutability": "view",
      "type": "function",
      "constant": true
    }
  ],
  "bytecode": "0x608060405234801561001057600080fd5b50610329806100206000396000f3fe608060405234801561001057600080fd5b50600436106100415760003560e01c80632096525514610046578063406944f01461006457806355241077146100a8575b600080fd5b61004e6100d6565b6040518082815260200191505060405180910390f35b6100a66004803603602081101561007a57600080fd5b81019080803573ffffffffffffffffffffffffffffffffffffffff16906020019092919050505061017f565b005b6100d4600480360360208110156100be57600080fd5b8101908080359060200190929190505050610265565b005b60008060009054906101000a900473ffffffffffffffffffffffffffffffffffffffff1673ffffffffffffffffffffffffffffffffffffffff1663209652556040518163ffffffff1660e01b815260040160206040518083038186803b15801561013f57600080fd5b505afa158015610153573d6000803e3d6000fd5b505050506040513d602081101561016957600080fd5b8101908080519060200190929190505050905090565b600073ffffffffffffffffffffffffffffffffffffffff168173ffffffffffffffffffffffffffffffffffffffff161415610222576040517f08c379a000000000000000000000000000000000000000000000000000000000815260040180806020018281038252600f8152602001807f496e76616c69642061646472657373000000000000000000000000000000000081525060200191505060405180910390fd5b806000806101000a81548173ffffffffffffffffffffffffffffffffffffffff021916908373ffffffffffffffffffffffffffffffffffffffff16021790555050565b60008054906101000a900473ffffffffffffffffffffffffffffffffffffffff1673ffffffffffffffffffffffffffffffffffffffff166355241077826040518263ffffffff1660e01b815260040180828152602001915050600060405180830381600087803b1580156102d857600080fd5b505af11580156102ec573d6000803e3d6000fd5b505050505056fea2646970667358221220b04c6c0d4f8ca04332957fc348d972939182f1e62c10a25f07cd052242bc3c9464736f6c634300060c0033",
  "immutableReferences": {},
  "source": "// SPDX-License-Identifier: MIT\n\npragma solidity >=0.4.0 < 0.7.0;\n\ninterface MasterSlave {\n  function setValue(uint _value) external;\n  function getValue() external view returns(uint);\n}\n\ncontract SlaveCallee is MasterSlave {\n  uint private value;\n\n  function setValue(uint _value) external override {\n    value = _value;\n  }\n\n  // @note For demonstration purposes.\n  // If value was declared as true, no need for function below.\n  function getValue() external override view returns(uint) {\n    return value;\n  }\n}\n\ncontract MasterCaller is MasterSlave {\n  address private slave;\n\n  function upgradeSlave(address _slave) external {\n    require(_slave != address(0), 'Invalid address');\n    slave = _slave;\n  }\n\n  function setValue(uint _value) external override{\n    SlaveCallee(slave).setValue(_value);\n  }\n\n  function getValue() external view override returns(uint) {\n    return SlaveCallee(slave).getValue();\n  }\n}",
  "sourcePath": "/Users/dhruvinparikh/gbc_tut/Advanced-Smart-Contracts/Advanced-Smart-Contracts/notes/sc-patterns-best-practices/demo/proxy-pattern/contracts/MasterSlave.sol",
  "compiler": {
    "name": "solc",
    "version": "0.6.12+commit.27d51765.Emscripten.clang"
  },
  "schemaVersion": "3.2.0",
  "updatedAt": "2020-07-25T00:28:58.677Z",
  "networkType": "ethereum",
  "devdoc": {
    "kind": "dev",
    "methods": {},
    "version": 1
  },
  "userdoc": {
    "kind": "user",
    "methods": {},
    "version": 1
  }
}